:100000000C942A000C9447000C9447000C94470071
:100010000C9447000C9447000C9447000C94D700B4
:100020000C9447000C9447000C9447000C94E60095
:100030000C9447000C9447000C9447000C94470024
:100040000C9447000C9447000C9447000C94470014
:100050000C94470011241FBECFE5D8E0DEBFCDBF12
:1000600010E0A0E6B0E0EAE4FAE002C005900D92EC
:10007000A837B107D9F720E0A8E7B0E001C01D928A
:10008000AB38B207E1F70E9466030C9423050C9489
:10009000000080E487B986E886B9089540E050E022
:1000A00080E090E00FC026B1206426B93699FECFDB
:1000B000880F991F24B135B121703327822B932BE0
:1000C0004F5F5F4F4031510574F3089585BB82B394
:1000D000806482BB8AE48A95F1F782B38F7B82BB0E
:1000E00088EB8A95F1F7000008958FEF84BB87B302
:1000F000846087BB81B3806C81BB8FEF95E30197F0
:10010000F1F700C0000088B38B7F88BB82B38F7784
:1001100082BB88E30E94660086E00E9466008CE055
:100120000E94660081E00E94660089E995E10197DE
:10013000F1F700C00895CF93C82F98B39B7F98BB69
:1001400080E8860F0E94660088B3846088BB8C2F8D
:100150000E946600CF910895CF93C82F98B39B7FDC
:1001600098BB80EC860F0E94660088B3846088BBD1
:100170008C2F0E946600CF9108958CE08EBD89B7C8
:10018000806189BF80917400909175009BBD8ABD8C
:100190007894089583E083BF89B7816089BF08950B
:1001A00087B38C7F87BB88B3836088BB08951F9219
:1001B0000F920FB60F9211248F9381E080937B00F2
:1001C0008F910F900FBE0F901F9018951F920F9256
:1001D0000FB60F9211248F9381E080937C008F9152
:1001E0000F900FBE0F901F901895B0990FC080917F
:1001F0008A00882319F0813029F015C081E08093AE
:100200008A0011C082E080938A000DC080918A002C
:10021000833019F0843029F006C084E080938A008E
:1002200002C010928A00B1990FC080918900882382
:1002300019F0813029F0089581E0809389000895B4
:1002400082E080938900089580918900833019F0BD
:10025000843029F0089584E080938900089585E032
:100260008093890008952091870030918800409103
:10027000830050918400C9018423952390938000CA
:1002800080937F00809590952823392330938800B0
:100290002093870084239523909384008093830088
:1002A00040E00AC09C01215031098223932390939E
:1002B000800080937F004F5F80917F00909180004D
:1002C000009781F78091790090917A00BC01640FCA
:1002D000711D2091850030918600409181005091E0
:1002E0008200C901842395239093800080937F002E
:1002F000809590952823392330938600209385009C
:1003000084239523909382008093810040E00AC06B
:100310009C01215031098223932390938000809384
:100320007F004F5F80917F0090918000009781F760
:10033000CB01840F911D90937A00809379000895EA
:1003400080917800882309F446C0809187009091BD
:100350008800969587959093880080938700809178
:10036000850090918600969587959093860080935E
:1003700085000E94BF046091760070E00E943C04FA
:10038000892B19F480E090E802C080E090E0209191
:10039000870030918800822B932B90938800809364
:1003A00087000E94BF046091760070E00E943C04C8
:1003B000892B19F480E090E802C080E090E0209161
:1003C000850030918600822B932B9093860080933A
:1003D00085000E9433019091780081E08927809305
:1003E0007800209183003091840033232CF4809195
:1003F00073008150809373008091810090918200FE
:1004000099232CF440917300415040937300409124
:1004100087005091880040FF0AC0609173006150CE
:10042000609373004E7F5093880040938700409103
:1004300085005091860040FF0AC0609173006150B2
:10044000609373004E7F5093860040938500220F87
:10045000331F3093840020938300880F991F90935B
:1004600082008093810040917D00413091F4409161
:100470007E00442319F0413039F00BC022603093E4
:1004800084002093830005C0826090938200809353
:1004900081000E9433010895EF92FF920F931F9302
:1004A000CF93DF93C1E0F12CD0E060C001E010E019
:1004B0000C2E02C0000F111F0A94E2F780918700F2
:1004C0009091880080239123892B89F0EE24E39476
:1004D000ED0ED11106C06C2F88E50E949B00DE2D29
:1004E00019C06C2F8DE20E949B00DE2D13C08091FD
:1004F00083009091840080239123892B31F06C2F0D
:100500008DE30E949B00D0E005C06C2F80E20E942A
:100510009B00D0E0809185009091860080239123FC
:10052000892B81F011E01F0DF11006C06C2F88E5BA
:100530000E94AC00F12E19C06C2F8DE20E94AC001D
:10054000F12E13C08091810090918200082319231D
:10055000012B31F06C2F8DE30E94AC00F12C05C013
:100560006C2F80E20E94AC00F12CCF5FC03108F408
:100570009DCFDF91CF911F910F91FF90EF90089544
:10058000CF93DF9328B381E090E00090640002C035
:10059000880F991F0A94E2F7822B88BB8091640030
:1005A00091E0980F90936400863019F483E0809373
:1005B0006400EFE6F0E08091730080834091790061
:1005C00050917A009A01ADECBCEC0E9450049695D3
:1005D000879596958795969587959C01220F331F51
:1005E000880F991F880F991F880F991F820F931FDB
:1005F0009A01281B390B23839A010E945004EC01B5
:10060000D695C795D695C795D695C7959E010E9454
:1006100050049695879596958795969587959C0114
:10062000220F331F880F991F880F991F880F991F5A
:10063000820F931F9E01281B390B22839A01369546
:10064000279536952795ABE7B4E10E945004AC019D
:10065000569547959A01ADECBCEC0E9450049695D6
:10066000879596958795969587959C01220F331FC0
:10067000880F991F880F991F880F991F820F931F4A
:100680009A01281B390B2183E0916400F0E0E459C2
:10069000FF4FE081F0E0EB59FF4F80818BBB28B327
:1006A00081E090E00090640002C0880F991F0A94D6
:1006B000E2F78095822388BBDF91CF91089587B3BD
:1006C000886787BB8AB38FEF8ABB08950E94490071
:1006D0000E944E000E94C4040E94D0000E94750037
:1006E0000E94CA000E94BD000E945F0380E090E863
:1006F0009093880080938700909386008093850074
:1007000060E08EE30E949B0060E080E20E94AC000B
:1007100080917B00813009F04CC00E94A0010E94B2
:100720004C028091740090917500813E2EE29207F8
:1007300038F080549109909375008093740031C013
:10074000813127E2920730F0809790937500809373
:10075000740027C081342FE1920730F008979093FE
:100760007500809374001DC0813727E1920730F037
:100770000497909375008093740013C0813A2FE022
:10078000920730F00297909375008093740009C02F
:10079000813D27E0920728F00197909375008093A0
:1007A000740080917400909175009BBD8ABD109279
:1007B0007B0080918A00823001F580917E00882341
:1007C00019F0813069F016C081E080937E0060E00E
:1007D00080E20E949B0060E08EE30E94AC000AC0B1
:1007E00010927E0060E08EE30E949B0060E080E259
:1007F0000E94AC0083E080938A008091890082305F
:1008000049F580917E00882319F0813079F01BC072
:100810008091830090918400826090938400809303
:10082000830061E08DE30E949B000DC080918100F8
:10083000909182008260909382008093810061E0B9
:100840008DE30E94AC0081E080937D0083E0809383
:10085000890006C0853021F410927D001092890035
:1008600080917C00813009F053CF0E94F5000E94F6
:10087000C00210927C004CCF97FB072E16F4009418
:1008800007D077FD09D00E945F0407FC05D03EF435
:10089000909581959F4F0895709561957F4F08952C
:1008A000A29FB001B39FC001A39F700D811D1124B1
:1008B000911DB29F700D811D1124911D0895AA1BD9
:1008C000BB1B51E107C0AA1FBB1FA617B70710F03B
:1008D000A61BB70B881F991F5A95A9F7809590956D
:1008E000BC01CD0108958F929F92AF92BF92CF929B
:1008F000DF92EF92FF92CF93DF93EC0168817981D1
:100900008A819B81611571058105910521F464E25D
:1009100079ED8BE597E02DE133EF41E050E00E9467
:10092000CF0449015A019B01AC01A7EAB1E40E943E
:10093000EE046B017C01ACEEB4EFA50194010E94C2
:10094000FC04DC01CB018C0D9D1DAE1DBF1DB7FF4E
:1009500003C00197A109B04888839983AA83BB8308
:100960009F77DF91CF91FF90EF90DF90CF90BF9076
:10097000AF909F908F9008950E947304089580E631
:1009800090E00E9473040895A0E0B0E080936000BE
:1009900090936100A0936200B09363000895052EC8
:1009A00097FB1EF400940E94E60457FD07D00E94B6
:1009B000010507FC03D04EF40C94E60450954095D5
:1009C000309521953F4F4F4F5F4F089590958095FB
:1009D000709561957F4F8F4F9F4F08950E945004EF
:1009E000A59F900DB49F900DA49F800D911D112483
:1009F0000895B7FF0C94EE040E94EE04821B930B43
:100A00000895A1E21A2EAA1BBB1BFD010DC0AA1F4F
:100A1000BB1FEE1FFF1FA217B307E407F50720F067
:100A2000A21BB30BE40BF50B661F771F881F991FE2
:100A30001A9469F760957095809590959B01AC012B
:0A0A4000BD01CF010895F894FFCF27
:100A4A000100000003C0F9A4B0999282D8809001F5
:080A5A0002030409A4380400A2
:00000001FF
