:100000000C942A000C943C000C943C000C943C0092
:100010000C9452000C943C000C943C000C943C005A
:100020000C943C000C943C000C943C000C943C0060
:100030000C943C000C943C000C943C000C943C0050
:100040000C943C000C943C000C943C000C943C0040
:100050000C943C0011241FBECFE5D8E0DEBFCDBF1D
:1000600020E0A0E6B0E001C01D92A336B207E1F7A0
:100070000E94B8000C9402010C94000081B38061CE
:1000800081BB8CE085BD8BE283BD7894089589B7F0
:10009000806889BF089589B78F7789BF82B38F7EC3
:1000A00082BB08951F920F920FB60F9211242F93C7
:1000B0003F934F935F936F937F938F939F93AF93F0
:1000C000BF93EF93FF9392B380E1892782BB809126
:1000D00061009091620080FF0BC08091610090915F
:1000E000620081FF05C09091600083B5891B83BDCC
:1000F00080916100909162009C0121503109309300
:10010000620020936100892B11F40E944B00FF9143
:10011000EF91BF91AF919F918F917F916F915F917F
:100120004F913F912F910F900FBE0F901F901895F8
:10013000CF93DF93C82FD42F9B013695322F2227E0
:100140003795279540E050E060E070EC88EA90E059
:100150000E94C10023BDD09360008C2F90E090934B
:100160006200809361000E944700DF91CF91089563
:100170000E943E0048EF60E47FE184E60E94980020
:10018000FFCF052E97FB1EF400940E94D80057FD68
:1001900007D00E94E00007FC03D04EF40C94D80076
:1001A00050954095309521953F4F4F4F5F4F0895A3
:1001B00090958095709561957F4F8F4F9F4F0895D3
:1001C000A1E21A2EAA1BBB1BFD010DC0AA1FBB1F5B
:1001D000EE1FFF1FA217B307E407F50720F0A21BCD
:1001E000B30BE40BF50B661F771F881F991F1A943A
:1001F00069F760957095809590959B01AC01BD0164
:08020000CF010895F894FFCF2F
:00000001FF
