S01A000046656C696E652D496E7661646572732D62342E737265638B
S11300000C942A000C9447000C9447000C9447006D
S11300100C9447000C9447000C9447000C94120174
S11300200C9447000C9447000C9447000C94210155
S11300300C9447000C9447000C9447000C94470020
S11300400C9447000C9447000C9447000C94470010
S11300500C94470011241FBECFE5D8E0DEBFCDBF0E
S113006011E0A0E6B0E0E6EBFDE002C005900D92E1
S1130070AE31B107D9F721E0AEE1B1E001C01D9284
S1130080AE33B207E1F70E9429050C94D9060C940B
S1130090000080E487B986E886B9089586B1806453
S11300A086B93699FECF84B108958091620080FFAD
S11300B006C086959CE889278093620003C08695D4
S11300C08093620080916200089585BB82B380644E
S11300D082BB8AE48A95F1F782B38F7B82BB88EB7B
S11300E08A95F1F7000008958FEF84BB87B384608D
S11300F087BB81B3806C81BB8FEF95E30197F1F7E8
S113010000C0000088B38B7F88BB82B38F7782BB2B
S113011088E30E94650086E00E9465008CE00E94EE
S1130120650081E00E94650089E995E10197F1F796
S113013000C00895CF93C82F98B39B7F98BB80E8E5
S1130140860F0E94650088B3846088BB8C2F0E9450
S11301506500CF910895CF93C82F98B39B7F98BB28
S113016080EC860F0E94650088B3846088BB8C2F66
S11301700E946500CF9108950F931F93CF938C0134
S113018088B38B7F88BB80E80E94650088B3846055
S113019088BBC0E009C0F801EC0FF11D8081882301
S11301A029F00E946500CF5FC031A8F3CF911F9161
S11301B00F9108950F931F93CF938C0188B38B7F76
S11301C088BB80EC0E94650088B3846088BBC0E073
S11301D009C0F801EC0FF11D8081882329F00E94E9
S11301E06500CF5FC031A8F3CF911F910F9108959F
S11301F08CE08EBD89B7806189BF80917200909137
S113020073009BBD8ABD7894089583E083BF89B74A
S1130210816089BF089587B38C7F87BB88B383606F
S113022088BB08951F920F920FB60F9211248F93DB
S113023081E0809326018F910F900FBE0F901F9045
S113024018951F920F920FB60F9211248F9381E08D
S1130250809327018F910F900FBE0F901F901895D8
S1130260B0990FC080913D01882319F0813029F0A5
S113027015C081E080933D0111C082E080933D016F
S11302800DC080913D01833019F0843029F006C0FF
S113029084E080933D0102C010923D01B1990FC0EA
S11302A080913C01882319F0813029F0089581E080
S11302B080933C01089582E080933C0108958091ED
S11302C03C01833019F0843029F0089584E0809350
S11302D03C01089585E080933C01089520E006C028
S11302E0AC0141505109842395232F5F0097C1F736
S11302F0822F0895EF92FF920F931F93CF93DF9372
S113030020913A0130913B01E0903601F0903701A1
S1130310C9018E219F21AC0140955095242335239A
S113032030933B0120933A01E422F5220E946E01AE
S1130330C0912401D0912501C80FD11D209138010D
S1130340309139010091340110913501C9018023A4
S11303509123AC01409550952423352330933901E2
S113036020933801042315230E946E01C80FD11D68
S11303702091300130913101C70182239323AC01D4
S11303804095509524233523309331012093300137
S1130390E422F5220E946E01C80FD11D40912E0166
S11303A050912F01C701842395239C0120953095FA
S11303B04223532350932F0140932E01E222F32230
S11303C0F0923701E09236010E946E01C80FD11DF0
S11303D020912C0130912D01C80182239323AC017B
S11303E0409550952423352330932D0120932C01DF
S11303F0042315230E946E01C80FD11D40912A01C8
S113040050912B01C8018423952390933301809349
S113041032019C01209530954223532350932B01A4
S113042040932A01022313231093350100933401CE
S11304300E946E01C80FD11DD0932501C0932401E1
S1130440DF91CF911F910F91FF90EF9008958091CC
S113045020018111FAC0809130019091310196956B
S11304608795909331018093300180912E01909172
S11304702F019695879590932F0180932E0180915B
S11304802C0190912D019695879590932D01809341
S11304902C0180912A0190912B0196958795909338
S11304A02B0180932A010E9455002091380130913C
S11304B0390140912E0150912F014223532391E0A1
S11304C0893108F090E081E0452B09F080E0892330
S11304D040913A0150913B0160912A0170912B01A6
S11304E06423752391E0672B09F090E0882359F089
S11304F0992349F030933B0120933A0150933901F9
S1130500409338010CC05695479550933B01409356
S11305103A0136952795309339012093380180911B
S11305201F01811132C00E945500909174008917F7
S1130530B0F481E080931F018091300190913101EA
S11305409068909331018093300180912E019091B5
S11305502F01906890932F0180932E012AC00E944E
S1130560550090917500891718F480E090E802C056
S113057080E090E020913A0130913B01822B932B53
S113058090933B0180933A0114C080913001909183
S113059031019068909331018093300180912E0154
S11305A090912F01906890932F0180932E011092C7
S11305B01F0180911E01811132C00E94550090914B
S11305C074008917B0F481E080931E0180912C019E
S11305D090912D01906890932D0180932C0180912E
S11305E02A0190912B01906890932B0180932A010A
S11305F02AC00E94550090917500891718F480E074
S113060090E802C080E090E02091380130913901F7
S1130610822B932B909339018093380114C08091DD
S11306202C0190912D01906890932D0180932C01C1
S113063080912A0190912B01906890932B018093D3
S11306402A0110921E010E947A018091200191E0FA
S1130650980F90932001823011F410922001209180
S113066036013091370133232CF48091710081508D
S113067080937100809134019091350199232CF479
S11306804091710041504093710040913A01509162
S11306903B0140FF0AC0609171006150609371009A
S11306A04E7F50933B0140933A0140913801509161
S11306B0390140FF0AC0609171006150609371007C
S11306C04E7F509339014093380140912E0150914F
S11306D02F0140FF0AC06091710061506093710066
S11306E04E7F50932F0140932E0140912A01509147
S11306F02B0140FF0AC0609171006150609371004A
S11307004E7F50932B0140932A01220F331F3093C5
S1130710370120933601880F991F909335018093F8
S11307203401409128014130F1F44091610051E0DD
S1130730540F50936100413019F41092610016C0B7
S113074040912901442319F0413039F00FC022604F
S1130750309337012093360109C0826090933501AC
S11307608093340103C081E0809361000E947A0188
S11307700895EF92FF920F931F93CF93DF9311E0AD
S1130780F12C00E076C0C1E0D0E0012E02C0CC0F15
S1130790DD1F0A94E2F780912E0190912F018C23A2
S11307A09D23892B89F0EE24E394E00E011106C009
S11307B0612F8BE70E949A000E2D24C0612F85E4DF
S11307C00E949A0000E01EC080913A0190913B0182
S11307D08C239D23892B29F0612F8AE20E949A00A1
S11307E011C080913601909137018C239D23892B70
S11307F029F0612F8DE30E949A0004C0612F80E2EA
S11308000E949A0080912A0190912B018C239D23B0
S1130810892B81F0C1E0CF0DF11006C0612F8BE769
S11308200E94AB00FC2E24C0612F85E40E94AB0023
S1130830F12C1EC080913801909139018C239D23A5
S1130840892B29F0612F8AE20E94AB0011C08091AC
S1130850340190913501C823D923CD2B29F0612F80
S11308608DE30E94AB0004C0612F80E20E94AB00C4
S11308701F5F103108F487CFDF91CF911F910F9143
S1130880FF90EF900895CF93DF9328B381E090E039
S11308900090600002C0880F991F0A94E2F7822B2F
S11308A088BB8091600091E0980F9093600086303F
S11308B019F483E080936000EDE6F0E0809171002C
S11308C0808340912401509125019A01ADECBCEC48
S11308D00E94CA06969587959695879596958795CD
S11308E09C01220F331F880F991F880F991F880FAF
S11308F0991F820F931F9A01281B390B23839A0196
S11309000E94CA06EC01D695C795D695C795D6958B
S1130910C7959E010E94CA069695879596958795D8
S1130920969587959C01220F331F880F991F880F76
S1130930991F880F991F820F931F9E01281B390B43
S113094022839A013695279536952795ABE7B4E12E
S11309500E94CA06AC01569547959A01ADECBCECD1
S11309600E94CA069695879596958795969587953C
S11309709C01220F331F880F991F880F991F880F1E
S1130980991F820F931F9A01281B390B2183E09131
S11309906000F0E0E659FF4FE081F0E0ED59FF4FD1
S11309A080818BBB28B381E090E00090600002C09E
S11309B0880F991F0A94E2F78095822388BBDF9100
S11309C0CF91089587B3886787BB8AB38FEF8ABBBB
S11309D0089580917200909173009BBD8ABD10921E
S11309E037011092360110923501109234011092A1
S11309F033011092320110923101109230011092A1
S1130A002F0110922E0110922D0110922C011092A0
S1130A102B0110922A0180E090E890933B0180938F
S1130A203A01909339018093380189E080937100F1
S1130A30109225011092240110922901109228018C
S1130A4060E08EE30E949A0060E080E20E94AB00C6
S1130A5008950E9449000E944E0080936200811113
S1130A6003C082E1809362000E940B010E94740023
S1130A700E9405010E94F8000E94E20480E197E6CA
S1130A809BBD8ABD80912301813009F45FC020F0B1
S1130A90823009F424C172C1809126018130A9F504
S1130AA08091220191E0980F90932201833011F4F8
S1130AB01092220180912201823059F028F4882377
S1130AC041F0813079F01FC0833061F0843099F0B7
S1130AD01AC086E790E00E94BC0087E890E00E947C
S1130AE0DA0011C088E990E00E94BC0089EA90E035
S1130AF00E94DA0008C08AEB90E00E94BC008AECF5
S1130B0090E00E94DA001092260180913D0182302B
S1130B1071F481E080932301809126018823E1F31D
S1130B20109226010E94E90483E080933D018091A4
S1130B303C01823019F483E080933C0180913C01B4
S1130B40853009F01BC110923C0118C18091260127
S1130B50813009F06BC00E9427020E94B903809182
S1130B60210191E0980F909321018F3F61F40E943D
S1130B704E0090916200892780936200811103C026
S1130B8085EA809362008091720090917300813EA7
S1130B902EE2920738F08054910990937300809369
S1130BA0720031C0813127E2920730F08097909330
S1130BB073008093720027C081342FE1920730F0D4
S1130BC0089790937300809372001DC0813727E1CA
S1130BD0920730F00497909373008093720013C0CF
S1130BE0813A2FE0920730F002979093730080933C
S1130BF0720009C0813D27E0920728F00197909385
S1130C0073008093720080917200909173009BBD79
S1130C108ABD80917100811107C080E197E69BBD78
S1130C208ABD82E0809323011092260180913D01C8
S1130C30823001F580912901882319F0813069F00F
S1130C4016C081E08093290160E080E20E949A004E
S1130C5060E08EE30E94AB000AC01092290160E0BC
S1130C608EE30E949A0060E080E20E94AB0083E081
S1130C7080933D0180913C01823049F580912901A6
S1130C80882319F0813079F01BC08091360190914E
S1130C9037018260909337018093360161E08DE3E0
S1130CA00E949A000DC080913401909135018260B8
S1130CB0909335018093340161E08DE30E94AB0091
S1130CC081E08093280183E080933C0157C0853004
S1130CD009F054C01092280110923C014FC0809139
S1130CE026018130A9F58091220191E0980F90931B
S1130CF02201833011F4109222018091220182306A
S1130D0059F028F4882341F0813079F01FC08330F2
S1130D1061F0843099F01AC08AED90E00E94BC0022
S1130D208BEE90E00E94DA0011C08CEF90E00E94FC
S1130D30BC008DE091E00E94DA0008C08AEB90E0EC
S1130D400E94BC008AEC90E00E94DA001092260116
S1130D5080913D01823029F41092230183E0809335
S1130D603D0180913C01823019F483E080933C0181
S1130D7080913C01853011F410923C01809127014F
S1130D80813009F07FCE0E9430010E94430410920A
S1130D90270178CEA29FB001B39FC001A39F700D1D
S1130DA0811D1124911DB29F700D811D1124911D6F
S1090DB00895F894FFCF42
S1130DB60301AAC0F9A4B0999282D88090010203D3
S1130DC6040970170A5520205E6F206F5E20206686
S1130DD6656C696E65200020494E56414445525360
S1130DE620203E773C20200020205E7520755E2062
S1130DF62066656C696E65200020494E564144455F
S1130E06525320206F776F20200020507265737331
S1130E16627574743E2077203C00205E6F206F5EFE
S1130E2620746F2073746172740020205E6F206FCB
S1130E365E20202067616D652020002020204F560B
S1130E464552202020203E773C20200020205E753D
S1130E5620755E20202047414D452020002020207B
S1110E666F766572202020206F776F202000A9
S9030000FC
