S015000042757A7A65722D7465737479322E73726563F5
S11300000C942A000C943C000C943C000C943C008E
S11300100C943C000C943C000C943C000C94500058
S11300200C943C000C943C000C943C000C943C005C
S11300300C943C000C943C000C943C000C943C004C
S11300400C943C000C943C000C943C000C943C003C
S11300500C943C0011241FBECFE5D8E0DEBFCDBF19
S113006020E0A0E6B0E001C01D92A336B207E1F79C
S11300700E9495000C9498000C94000081B3806158
S113008081BB8AE08EBD80E09AEF9BBD8ABD7894E7
S1130090089589B78F7E89BF82B38F7E82BB08950E
S11300A01F920F920FB60F9211242F933F934F93E9
S11300B05F936F937F938F939F93AF93BF93EF93CC
S11300C0FF9392B380E1892782BB8091610080FF16
S11300D00CC081FF0AC08AB59BB520916000821BC9
S11300E0910927FD93959BBD8ABD809161009091F4
S11300F062009C0121503109309362002093610019
S1130100892B11F40E944900FF91EF91BF91AF91A7
S11301109F918F917F916F915F914F913F912F911B
S11301200F900FBE0F901F9018950E943E00FFCFB6
S1070130F894FFCF6D
S9030000FC
