:100000000C942A000C9447000C9447000C94470071
:100010000C9447000C9447000C9447000C94D600B5
:100020000C9447000C9447000C9447000C94E50096
:100030000C9447000C9447000C9447000C94470024
:100040000C9447000C9447000C9447000C94470014
:100050000C94470011241FBECFE5D8E0DEBFCDBF12
:1000600010E0A0E6B0E0E0EEFAE002C005900D92EC
:10007000A437B107D9F720E0A4E7B0E001C01D9292
:10008000A239B207E1F70E946F040C946E050C943C
:10009000000080E487B986E886B9089586B1806457
:1000A00086B93699FECF84B108958091610080FFB2
:1000B00006C086959CE889278093610003C08695D9
:1000C0008093610080916100089585BB82B3806454
:1000D00082BB8AE48A95F1F782B38F7B82BB88EB7F
:1000E0008A95F1F7000008958FEF84BB87B3846091
:1000F00087BB81B3806C81BB8FEF95E30197F1F7EC
:1001000000C0000088B38B7F88BB82B38F7782BB2F
:1001100088E30E94650086E00E9465008CE00E94F2
:10012000650081E00E94650089E995E10197F1F79A
:1001300000C00895CF93C82F98B39B7F98BB80E8E9
:10014000860F0E94650088B3846088BB8C2F0E9454
:100150006500CF910895CF93C82F98B39B7F98BB2C
:1001600080EC860F0E94650088B3846088BB8C2F6A
:100170000E946500CF9108958CE08EBD89B78061A3
:1001800089BF80917100909172009BBD8ABD789467
:10019000089583E083BF89B7816089BF089587B3DD
:1001A0008C7F87BB88B3836088BB08951F920F92B2
:1001B0000FB60F9211248F9381E080937A008F9174
:1001C0000F900FBE0F901F9018951F920F920FB6B1
:1001D0000F9211248F9381E080937B008F910F9079
:1001E0000FBE0F901F901895B0990FC0809191008D
:1001F000882319F0813029F015C081E080939100A7
:1002000011C082E0809391000DC0809191008330F5
:1002100019F0843029F006C084E08093910002C078
:1002200010929100B1990FC080919000882319F02D
:10023000813029F0089581E080939000089582E054
:1002400080939000089580919000833019F084305D
:1002500029F0089584E080939000089585E08093CC
:100260009000089520E006C0AC014150510984235C
:1002700095232F5F0097C1F7822F0895EF92FF9289
:100280000F931F93CF93DF9320918E0030918F00B7
:10029000E0908A00F0908B00C9018E219F21AC0173
:1002A000409550952423352330938F0020938E0062
:1002B000E422F5220E943201C0917800D0917900A9
:1002C000C80FD11D20918C0030918D0000918800C5
:1002D00010918900C90180239123AC01409550956C
:1002E0002423352330938D0020938C000423152381
:1002F0000E943201C80FD11D2091840030918500E9
:10030000C70182239323AC014095509524233523C4
:100310003093850020938400E422F5220E9432016C
:10032000C80FD11D4091820050918300C7018423E2
:1003300095239C01209530954223532350938300AD
:1003400040938200E222F322F0928B00E0928A0036
:100350000E943201C80FD11D209180003091810090
:10036000C80182239323AC01409550952423352363
:100370003093810020938000042315230E943201D2
:10038000C80FD11D40917E0050917F00C801842389
:10039000952390938700809386009C01209530954B
:1003A0004223532350937F0040937E000223132364
:1003B00010938900009388000E943201C80FD11D5C
:1003C000D0937900C0937800DF91CF911F910F9166
:1003D000FF90EF90089580917600882309F4CEC0B5
:1003E00080918E0090918F009695879590938F00C5
:1003F00080938E0080918C0090918D0096958795CA
:1004000090938D0080938C00209184003091850022
:100410003695279530938500209384008091820043
:1004200090918300969587959093830080938200A6
:1004300040918000509181005695479550938100DE
:100440004093800040917E0050917F0056954795E3
:1004500050937F0040937E0040917500411134C05D
:100460000E94550090917300969596958917B0F467
:1004700081E0809375008091840090918500906860
:1004800090938500809384008091820090918300F6
:100490009068909383008093820022C00E94550050
:1004A00090917300891718F480E090E802C080E012
:1004B00090E020918E0030918F00822B932B9093AF
:1004C0008F0080938E000CC030683093850020939D
:1004D000840090689093830080938200109275004E
:1004E00080917400811134C00E9455009091730076
:1004F000969596958917B0F481E080937400809169
:10050000800090918100906890938100809380009A
:1005100080917E0090917F00906890937F008093FF
:100520007E002AC00E94550090917300891718F42C
:1005300080E090E802C080E090E020918C00309153
:100540008D00822B932B90938D0080938C0014C090
:1005500080918000909181009068909381008093B9
:10056000800080917E0090917F00906890937F0042
:1005700080937E00109274000E943E01909176005C
:1005800081E089278093760020918A0030918B004A
:1005900033232CF4809170008150809370008091FF
:1005A00088009091890099232CF44091700041506B
:1005B0004093700040918E0050918F0040FF0AC020
:1005C000609170006150609370004E7F50938F0077
:1005D00040938E0040918C0050918D0040FF0AC0E6
:1005E000609170006150609370004E7F50938D0059
:1005F00040938C00409182005091830040FF0AC0DC
:10060000609170006150609370004E7F5093830042
:100610004093820040917E0050917F0040FF0AC0CD
:10062000609170006150609370004E7F50937F0026
:1006300040937E00220F331F30938B0020938A005B
:10064000880F991F909389008093880040917C00C7
:10065000413091F440917D00442319F0413039F04C
:100660000BC0226030938B0020938A0005C082600B
:1006700090938900809388000E943E010895EF9234
:10068000FF920F931F93CF93DF9311E0F12C00E0C3
:1006900076C0C1E0D0E0012E02C0CC0FDD1F0A946D
:1006A000E2F780918200909183008C239D23892B17
:1006B00089F0EE24E394E00E011106C0612F87E576
:1006C0000E949A000E2D24C0612F8FE60E949A008E
:1006D00000E01EC080918E0090918F008C239D239E
:1006E000892B29F0612F88E50E949A0011C0809122
:1006F0008A0090918B008C239D23892B29F0612FF8
:100700008DE30E949A0004C0612F80E20E949A004B
:1007100080917E0090917F008C239D23892B81F016
:10072000C1E0CF0DF11006C0612F87E50E94AB003C
:10073000FC2E24C0612F8FE60E94AB00F12C1EC05E
:1007400080918C0090918D008C239D23892B29F022
:10075000612F88E50E94AB0011C0809188009091C4
:100760008900C823D923CD2B29F0612F8DE30E9466
:10077000AB0004C0612F80E20E94AB001F5F10310C
:1007800008F487CFDF91CF911F910F91FF90EF90E9
:100790000895CF93DF9328B381E090E0009060004C
:1007A00002C0880F991F0A94E2F7822B88BB8091C0
:1007B000600091E0980F90936000863019F483E018
:1007C00080936000ECE6F0E08091700080834091BF
:1007D0007800509179009A01ADECBCEC0E945F0565
:1007E0009695879596958795969587959C01220F66
:1007F000331F880F991F880F991F880F991F820F29
:10080000931F9A01281B390B23839A010E945F05CD
:10081000EC01D695C795D695C795D695C7959E01F7
:100820000E945F05969587959695879596958795ED
:100830009C01220F331F880F991F880F991F880F63
:10084000991F820F931F9E01281B390B22839A0147
:100850003695279536952795ABE7B4E10E945F055D
:10086000AC01569547959A01ADECBCEC0E945F0532
:100870009695879596958795969587959C01220FD5
:10088000331F880F991F880F991F880F991F820F98
:10089000931F9A01281B390B2183E0916000F0E03F
:1008A000E759FF4FE081F0E0EE59FF4F80818BBBAD
:1008B00028B381E090E00090600002C0880F991F8B
:1008C0000A94E2F78095822388BBDF91CF91089547
:1008D00087B3886787BB8AB38FEF8ABB08950E946E
:1008E00049000E944E0080936100811103C082E1A3
:1008F000809361000E94CF000E9474000E94C90092
:100900000E94BC000E94680480E090E890938F00F1
:1009100080938E0090938D0080938C0060E08EE336
:100920000E949A0060E080E20E94AB0080917A0011
:10093000813009F061C00E94EB010E943F03809169
:10094000770091E0980F909377008F3F61F40E94B9
:100950004E0090916100892780936100811103C04E
:1009600085EA809361008091710090917200813ED0
:100970002EE2920738F0805891099093720080938C
:10098000710032C0813127E2920738F0805491091A
:10099000909372008093710027C081342FE19207F9
:1009A00030F0409790937200809371001DC08137A2
:1009B00027E1920730F008979093720080937100BE
:1009C00013C0813A2FE0920730F0049790937200A1
:1009D0008093710009C0813D27E0920728F00297BB
:1009E00090937200809371008091710090917200D9
:1009F0009BBD8ABD10927A0080919100823001F5F2
:100A000080917D00882319F0813069F016C081E063
:100A100080937D0060E080E20E949A0060E08EE3B7
:100A20000E94AB000AC010927D0060E08EE30E943D
:100A30009A0060E080E20E94AB0083E08093910026
:100A400080919000823049F580917D00882319F0D3
:100A5000813079F01BC080918A0090918B00826078
:100A600090938B0080938A0061E08DE30E949A004E
:100A70000DC08091880090918900826090938900D8
:100A80008093880061E08DE30E94AB0081E0809359
:100A90007C0083E08093900006C0853021F41092A2
:100AA0007C001092900080917B00813009F03ECF55
:100AB0000E94F4000E94C90310927B0037CFA29FCE
:100AC000B001B39FC001A39F700D811D1124911D22
:100AD000B29F700D811D1124911D0895F894FFCFD0
:100AE00003AAC0F9A4B0999282D8809001020304AD
:040AF00009A4383FDE
:00000001FF
