:100000000C942A000C9447000C9447000C94470071
:100010000C9447000C9447000C9447000C94D600B5
:100020000C9447000C9447000C9447000C94E50096
:100030000C9447000C9447000C9447000C94470024
:100040000C9447000C9447000C9447000C94470014
:100050000C94470011241FBECFE5D8E0DEBFCDBF12
:1000600010E0A0E6B0E0E8EDFAE002C005900D92E5
:10007000A637B107D9F720E0A6E7B0E001C01D928E
:10008000A439B207E1F70E946B040C946A050C9442
:10009000000080E487B986E886B9089586B1806457
:1000A00086B93699FECF84B108958091610080FFB2
:1000B00006C086959CE889278093610003C08695D9
:1000C0008093610080916100089585BB82B3806454
:1000D00082BB8AE48A95F1F782B38F7B82BB88EB7F
:1000E0008A95F1F7000008958FEF84BB87B3846091
:1000F00087BB81B3806C81BB8FEF95E30197F1F7EC
:1001000000C0000088B38B7F88BB82B38F7782BB2F
:1001100088E30E94650086E00E9465008CE00E94F2
:10012000650081E00E94650089E995E10197F1F79A
:1001300000C00895CF93C82F98B39B7F98BB80E8E9
:10014000860F0E94650088B3846088BB8C2F0E9454
:100150006500CF910895CF93C82F98B39B7F98BB2C
:1001600080EC860F0E94650088B3846088BB8C2F6A
:100170000E946500CF9108958CE08EBD89B78061A3
:1001800089BF80917100909172009BBD8ABD789467
:10019000089583E083BF89B7816089BF089587B3DD
:1001A0008C7F87BB88B3836088BB08951F920F92B2
:1001B0000FB60F9211248F9381E080937C008F9172
:1001C0000F900FBE0F901F9018951F920F920FB6B1
:1001D0000F9211248F9381E080937D008F910F9077
:1001E0000FBE0F901F901895B0990FC0809193008B
:1001F000882319F0813029F015C081E080939300A5
:1002000011C082E0809393000DC0809193008330F1
:1002100019F0843029F006C084E08093930002C076
:1002200010929300B1990FC080919200882319F029
:10023000813029F0089581E080939200089582E052
:1002400080939200089580919200833019F0843059
:1002500029F0089584E080939200089585E08093CA
:100260009200089520E006C0AC014150510984235A
:1002700095232F5F0097C1F7822F0895EF92FF9289
:100280000F931F93CF93DF932091900030919100B3
:10029000E0908C00F0908D00C9018E219F21AC016F
:1002A000409550952423352330939100209390005E
:1002B000E422F5220E943201C0917A00D0917B00A5
:1002C000C80FD11D20918E0030918F0000918A00BF
:1002D00010918B00C90180239123AC01409550956A
:1002E0002423352330938F0020938E00042315237D
:1002F0000E943201C80FD11D2091860030918700E5
:10030000C70182239323AC014095509524233523C4
:100310003093870020938600E422F5220E94320168
:10032000C80FD11D4091840050918500C7018423DE
:1003300095239C01209530954223532350938500AB
:1003400040938400E222F322F0928D00E0928C0030
:100350000E943201C80FD11D20918200309183008C
:10036000C80182239323AC01409550952423352363
:100370003093830020938200042315230E943201CE
:10038000C80FD11D4091800050918100C801842385
:10039000952390938900809388009C012095309547
:1003A0004223532350938100409380000223132360
:1003B00010938B0000938A000E943201C80FD11D58
:1003C000D0937B00C0937A00DF91CF911F910F9162
:1003D000FF90EF90089580917800882309F4CAC0B7
:1003E00080919000909191009695879590939100BF
:1003F0008093900080918E0090918F0096958795C4
:1004000090938F0080938E0020918600309187001A
:10041000369527953093870020938600809184003D
:1004200090918500969587959093850080938400A0
:1004300040918200509183005695479550938300D8
:1004400040938200409180005091810056954795DD
:10045000509381004093800040917700411132C059
:100460000E945500909173008917B0F481E0809349
:100470007700809186009091870090689093870024
:10048000809386008091840090918500906890937D
:1004900085008093840022C00E94550090917400D2
:1004A000891718F480E090E802C080E090E0209185
:1004B000900030919100822B932B90939100809328
:1004C00090000CC0306830938700209386009068BD
:1004D000909385008093840010927700809176003D
:1004E000811132C00E945500909173008917B0F4B9
:1004F00081E08093760080918200909183009068E3
:10050000909383008093820080918000909181007D
:10051000906890938100809380002AC00E945500CB
:1005200090917400891718F480E090E802C080E090
:1005300090E020918E0030918F00822B932B90932E
:100540008F0080938E0014C0809182009091830070
:1005500090689093830080938200809180009091B6
:1005600081009068909381008093800010927600C3
:100570000E943E019091780081E089278093780065
:1005800020918C0030918D0033232CF480917000E9
:1005900081508093700080918A0090918B00992304
:1005A0002CF44091700041504093700040919000B5
:1005B0005091910040FF0AC06091700061506093BB
:1005C00070004E7F509391004093900040918E00B8
:1005D00050918F0040FF0AC060917000615060939D
:1005E00070004E7F50938F0040938E0040918400A6
:1005F0005091850040FF0AC0609170006150609387
:1006000070004E7F5093850040938400409180009D
:100610005091810040FF0AC060917000615060936A
:1006200070004E7F5093810040938000220F331F53
:1006300030938D0020938C00880F991F90938B002E
:1006400080938A0040917E00413091F440917F0078
:10065000442319F0413039F00BC0226030938D00F3
:1006600020938C0005C0826090938B0080938A0059
:100670000E943E010895EF92FF920F931F93CF9334
:10068000DF9311E0F12C00E076C0C1E0D0E0012E54
:1006900002C0CC0FDD1F0A94E2F780918400909194
:1006A00085008C239D23892B89F0EE24E394E00EB2
:1006B000011106C0612F87E50E949A000E2D24C00B
:1006C000612F8FE60E949A0000E01EC0809190008A
:1006D000909191008C239D23892B29F0612F88E52F
:1006E0000E949A0011C080918C0090918D008C2303
:1006F0009D23892B29F0612F8DE30E949A0004C06D
:10070000612F80E20E949A00809180009091810088
:100710008C239D23892B81F0C1E0CF0DF11006C001
:10072000612F87E50E94AB00FC2E24C0612F8FE66D
:100730000E94AB00F12C1EC080918E0090918F0022
:100740008C239D23892B29F0612F88E50E94AB0023
:1007500011C080918A0090918B00C823D923CD2BA2
:1007600029F0612F8DE30E94AB0004C0612F80E26D
:100770000E94AB001F5F103108F487CFDF91CF914B
:100780001F910F91FF90EF900895CF93DF9328B3BF
:1007900081E090E00090600002C0880F991F0A94E9
:1007A000E2F7822B88BB8091600091E0980F9093D4
:1007B0006000863019F483E080936000ECE6F0E09E
:1007C00080917000808340917A0050917B009A0163
:1007D000ADECBCEC0E945B05969587959695879548
:1007E000969587959C01220F331F880F991F880FBC
:1007F000991F880F991F820F931F9A01281B390B8D
:1008000023839A010E945B05EC01D695C795D69586
:10081000C795D695C7959E010E945B0596958795CD
:1008200096958795969587959C01220F331F880F83
:10083000991F880F991F880F991F820F931F9E0180
:10084000281B390B22839A013695279536952795D3
:10085000ABE7B4E10E945B05AC01569547959A0160
:10086000ADECBCEC0E945B059695879596958795B7
:10087000969587959C01220F331F880F991F880F2B
:10088000991F880F991F820F931F9A01281B390BFC
:100890002183E0916000F0E0E759FF4FE081F0E054
:1008A000EE59FF4F80818BBB28B381E090E0009030
:1008B000600002C0880F991F0A94E2F78095822396
:1008C00088BBDF91CF91089587B3886787BB8AB3D0
:1008D0008FEF8ABB08950E9449000E944E008093CA
:1008E0006100811103C082E1809361000E94CF000A
:1008F0000E9474000E94C9000E94BC000E9464040F
:1009000080E090E8909391008093900090938F0006
:1009100080938E0060E08EE30E949A0060E080E2A7
:100920000E94AB0080917C00813009F061C00E9480
:10093000EB010E943B038091790091E0980F909326
:1009400079008F3F61F40E944E00909161008927E9
:1009500080936100811103C085EA809361008091DA
:10096000710090917200813E2EE2920738F080581B
:100970009109909372008093710032C0813127E217
:10098000920738F08054910990937200809371001F
:1009900027C081342FE1920730F040979093720086
:1009A000809371001DC0813727E1920730F00897CE
:1009B000909372008093710013C0813A2FE09207E8
:1009C00030F00497909372008093710009C0813DCC
:1009D00027E0920728F002979093720080937100AD
:1009E00080917100909172009BBD8ABD10927C0035
:1009F00080919300823001F580917F00882319F067
:100A0000813069F016C081E080937F0060E080E271
:100A10000E949A0060E08EE30E94AB000AC0109230
:100A20007F0060E08EE30E949A0060E080E20E9416
:100A3000AB0083E08093930080919200823049F56F
:100A400080917F00882319F0813079F01BC080915C
:100A50008C0090918D00826090938D0080938C002B
:100A600061E08DE30E949A000DC080918A00909110
:100A70008B00826090938B0080938A0061E08DE30D
:100A80000E94AB0081E080937E0083E0809392001F
:100A900006C0853021F410927E0010929200809161
:100AA0007D00813009F03ECF0E94F4000E94C50312
:100AB00010927D0037CFA29FB001B39FC001A39FCA
:100AC000700D811D1124911DB29F700D811D112487
:080AD000911D0895F894FFCF79
:100AD80003AAC0F9A4B0999282D8809001020304B5
:060AE80009A4380F3F00D5
:00000001FF
