S01A000046656C696E652D496E7661646572732D62362E7372656389
S11300000C943A000C9457000C9457000C9457002D
S11300100C9488000C9457000C9457000C94C30162
S11300200C9457000C9457000C9457000C94D20174
S11300300C9457000C9457000C9457000C945700E0
S11300400C9457000C9457000C9457000C945700D0
S11300500C94570040074807500758076007680783
S113006070077807BA08C208CA08D208DA08E20892
S1130070EA08F20811241FBECFE5D8E0DEBFCDBFE9
S113008011E0A0E6B0E0EAEEF2E102C005900D92C4
S1130090AE33B107D9F721E0AEE3B1E001C01D9260
S11300A0A236B207E1F70E94D4060C9473090C94AB
S11300B0000080E487B986E886B9089586B1806433
S11300C086B93699FECF84B108958091620080FF8D
S11300D006C086959CE889278093620003C08695B4
S11300E08093620080916200089581B3806181BB36
S11300F08CE085BD8BE283BD089589B7806889BF94
S1130100089589B78F7789BF82B38F7E82BB0895A4
S11301101F920F920FB60F9211242F933F934F9378
S11301205F936F937F938F939F93AF93BF93EF935B
S1130130FF9392B380E1892782BB80914301909120
S1130140440180FF0BC0809143019091440181FFE1
S113015005C09091420183B5891B83BD8091430101
S1130160909144019C012150310930934401209322
S11301704301892B11F40E948100FF91EF91BF91FB
S1130180AF919F918F917F916F915F914F913F912B
S11301902F910F900FBE0F901F9018951F93CF9320
S11301A0DF93EC01142F9B013695322F22273795CC
S11301B0279540E050E060E070EC88EA90E00E940F
S11301C01D0923BD10934201D0934401C093430100
S11301D00E947D00DF91CF911F91089585BB82B36A
S11301E0806482BB8AE48A95F1F782B38F7B82BBF9
S11301F088EB8A95F1F7000008950F931F93CF932E
S1130200DF93D82F8B01C0E019C088B38B7F88BBE4
S113021082B38F7782BB8D2F90E00896880F880F6A
S1130220880F8C0F0E94EE0088B3846088BBF801AD
S1130230EC0FF11D80810E94EE00CF5FC83028F3DF
S1130240DF91CF911F910F9108958FEF84BB87B3F6
S1130250846087BB81B3806C81BB8FEF95E301978A
S1130260F1F700C0000088B38B7F88BB82B38F771F
S113027082BB88E30E94EE0086E00E94EE008CE0E0
S11302800E94EE0081E00E94EE0089E995E1019769
S1130290F1F700C00895CF93C82F98B39B7F98BB04
S11302A080E8860F0E94EE0088B3846088BB8C2FA0
S11302B00E94EE00CF910895CF93C82F98B39B7FEF
S11302C098BB80EC860F0E94EE0088B3846088BBE4
S11302D08C2F0E94EE00CF9108950F931F93CF931C
S11302E08C0188B38B7F88BB80E80E94EE0088B3C2
S11302F0846088BBC0E009C0F801EC0FF11D808167
S1130300882329F00E94EE00CF5FC031A8F3CF917B
S11303101F910F9108950F931F93CF938C0188B36E
S11303208B7F88BB80EC0E94EE0088B3846088BB1E
S1130330C0E009C0F801EC0FF11D8081882329F089
S11303400E94EE00CF5FC031A8F3CF911F910F91AF
S113035008958CE08EBD89B7806189BF8091720059
S1130360909173009BBD8ABD7894089583E083BF08
S113037089B7816089BF089587B38C7F87BB88B3B1
S1130380836088BB08951F920F920FB60F921124B9
S11303908F9381E080934A018F910F900FBE0F904D
S11303A01F9018951F920F920FB60F9211248F93DE
S11303B081E080934B018F910F900FBE0F901F909F
S11303C01895B0990FC080916101882319F081308C
S11303D029F015C081E08093610111C082E080930F
S11303E061010DC080916101833019F0843029F0DE
S11303F006C084E08093610102C010926101B1994A
S11304000FC080916001882319F0813029F008958C
S113041081E080936001089582E0809360010895F3
S113042080916001833019F0843029F0089584E0CC
S113043080936001089585E080936001089520E031
S113044006C0AC0141505109842395232F5F0097C6
S1130450C1F7822F0895EF92FF920F931F93CF93CA
S1130460DF9320915E0130915F01E0905A01F0909A
S11304705B01C9018E219F219093570180935601FE
S1130480AC01409550952423352330935F0120938C
S11304905E01E422F522F0925B01E0925A0100979A
S11304A039F020914101233018F422E020934101D6
S11304B00E941F02C0914801D0914901C80FD11D6B
S11304C0D0934901C093480120915C0130915D01B2
S11304D00091580110915901C901802391239093EF
S11304E0570180935601AC01409550952423352340
S11304F030935D0120935C0104231523109359016B
S113050000935801009739F020914101233018F4E9
S113051022E0209341010E941F02C80FD11DD093F5
S11305204901C09348012091540130915501C701FC
S1130530822393239093570180935601AC014095F5
S11305405095242335233093550120935401E422FC
S1130550F522F0925B01E0925A01009739F0209164
S11305604101243019F023E0209341010E941F022D
S1130570C80FD11DD0934901C09348014091520145
S113058050915301C701842395239093570180937D
S113059056019C01209530954223532350935301D7
S11305A040935201E222F322F0925B01E0925A015D
S11305B0009739F020914101243019F023E0209371
S11305C041010E941F02C80FD11DD0934901C0935D
S11305D048012091500130915101C8018223932395
S11305E09093570180935601AC0140955095242374
S11305F03523309351012093500104231523109384
S1130600590100935801009739F020914101243099
S113061019F023E0209341010E941F02C80FD11D4D
S1130620D0934901C093480140914E0150914F012C
S1130630C8018423952390935701809356019C010C
S1130640209530954223532350934F0140934E01FC
S1130650022313231093590100935801009739F092
S113066020914101243019F023E0209341010E949C
S11306701F02C80FD11DD0934901C0934801DF91D7
S1130680CF911F910F91FF90EF90089580914001B9
S11306908111FAC0809154019091550196958795E6
S11306A0909355018093540180915201909153018C
S11306B096958795909353018093520180915001B0
S11306C09091510196958795909351018093500193
S11306D080914E0190914F019695879590934F018B
S11306E080934E010E94650020915C0130915D0170
S11306F040915201509153014223532391E0893197
S113070008F090E081E0452B09F080E089234091D6
S11307105E0150915F0160914E0170914F0164231D
S1130720752391E0672B09F090E0882359F0992311
S113073049F030935F0120935E0150935D01409333
S11307405C010CC05695479550935F0140935E0140
S11307503695279530935D0120935C0180913F018C
S1130760811132C00E946500909174008917B0F421
S113077081E080933F0180915401909155019068EC
S113078090935501809354018091520190915301AB
S1130790906890935301809352012AC00E9465008F
S11307A090917500891718F480E090E802C080E009
S11307B090E020915E0130915F01822B932B909306
S11307C05F0180935E0114C08091540190915501A2
S11307D090689093550180935401809152019091B7
S11307E053019068909353018093520110923F01FA
S11307F080913E01811132C00E9465009091740085
S11308008917B0F481E080933E018091500190916A
S113081051019068909351018093500180914E0151
S113082090914F01906890934F0180934E012AC09C
S11308300E94650090917500891718F480E090E893
S113084002C080E090E020915C0130915D01822B38
S1130850932B90935D0180935C0114C080915001AF
S1130860909151019068909351018093500180912F
S11308704E0190914F01906890934F0180934E01E7
S113088010923E010E942B028091400191E0980F4A
S113089090934001823011F41092400120915A014A
S11308A030915B01332344F4809171008150809333
S11308B0710084E080934101809158019091590125
S11308C0992344F44091710041504093710044E0F5
S11308D04093410140915E0150915F0140FF0DC082
S11308E0609171006150609371004E7F50935F017D
S11308F040935E0144E04093410140915C0150917A
S11309005D0140FF0DC06091710061506093710002
S11309104E7F50935D0140935C0144E0409341015C
S1130920409152015091530140FF0DC060917100FC
S11309306150609371004E7F509353014093520174
S113094044E04093410140914E0150914F0140FFDA
S11309500DC0609171006150609371004E7F50939F
S11309604F0140934E0144E040934101220F331F55
S113097030935B0120935A01880F991F909359017A
S11309808093580140914C01413029F54091610018
S113099051E0540F50936100413019F410926100FA
S11309A01DC040914101423018F441E0409341019F
S11309B040914D01442319F0413039F00FC02260B9
S11309C030935B0120935A0109C0826090935901CE
S11309D08093580103C081E0809361000E942B0240
S11309E00895EF92FF920F931F93CF93DF9311E03B
S11309F0F12C00E076C0C1E0D0E0012E02C0CC0FA3
S1130A00DD1F0A94E2F780915201909153018C23E7
S1130A109D23892B89F0EE24E394E00E011106C096
S1130A20612F82E00E944B010E2D24C0612F83E0D0
S1130A300E944B0100E01EC080915E0190915F0115
S1130A408C239D23892B29F0612F81E00E944B0187
S1130A5011C080915A0190915B018C239D23892BB5
S1130A6029F0612F8DE30E944B0104C0612F80E2C5
S1130A700E944B0180914E0190914F018C239D2344
S1130A80892B81F0C1E0CF0DF11006C0612F82E007
S1130A900E945C01FC2E24C0612F83E00E945C0153
S1130AA0F12C1EC080915C0190915D018C239D23EB
S1130AB0892B29F0612F81E00E945C0111C0809193
S1130AC0580190915901C823D923CD2B29F0612FC6
S1130AD08DE30E945C0104C0612F80E20E945C01EE
S1130AE01F5F103108F487CFDF91CF911F910F91D1
S1130AF0FF90EF900895CF93DF9328B381E090E0C7
S1130B000090600002C0880F991F0A94E2F7822BBC
S1130B1088BB8091600091E0980F909360008630CC
S1130B2019F483E080936000EDE6F0E080917100B9
S1130B30808340914801509149019A01ADECBCEC8D
S1130B400E944209969587959695879596958795DF
S1130B509C01220F331F880F991F880F991F880F3C
S1130B60991F820F931F9A01281B390B23839A0123
S1130B700E944209EC01D695C795D695C795D6959E
S1130B80C7959E010E9442099695879596958795EB
S1130B90969587959C01220F331F880F991F880F04
S1130BA0991F880F991F820F931F9E01281B390BD1
S1130BB022839A013695279536952795ABE7B4E1BC
S1130BC00E944209AC01569547959A01ADECBCECE4
S1130BD00E9442099695879596958795969587954F
S1130BE09C01220F331F880F991F880F991F880FAC
S1130BF0991F820F931F9A01281B390B2183E091BF
S1130C006000F0E0E659FF4FE081F0E0ED59FF4F5E
S1130C1080818BBB28B381E090E00090600002C02B
S1130C20880F991F0A94E2F78095822388BBDF918D
S1130C30CF91089587B3886787BB8AB38FEF8ABB48
S1130C40089580E797E190937300809372009BBDB1
S1130C508ABD10925B0110925A01109259011092B0
S1130C60580110925701109256011092550110929A
S1130C70540110925301109252011092510110929A
S1130C80500110924F0110924E0180E090E8909331
S1130C905F0180935E0190935D0180935C0189E024
S1130CA080937100109249011092480110924D01F5
S1130CB010924C0160E080E00E944B0160E080E211
S1130CC00E945C01089566E870E080E00E94FD00E7
S1130CD06EE870E081E00E94FD006EE770E082E063
S1130CE00E94FD0066E770E083E00E94FD00089525
S1130CF080914101823099F028F4882341F18130B8
S1130D0031F04FC0833099F08430C9F04AC04CEEC2
S1130D1060E47FE184E690E00E94CE0042C041E0BE
S1130D206CE573E084E190E00E94CE003AC04CEFA1
S1130D3060E872E084E690E00E94CE0032C040E0B9
S1130D4064E571E084E690E00E94CE002AC08091C0
S1130D5045018370813071F028F0823099F083303E
S1130D60C9F01FC040EE60E273E084E190E00E94AD
S1130D70CE0017C040EE60E273E084E190E00E9490
S1130D80CE000FC04BEF6CEA73E081E090E00E946C
S1130D90CE0007C04AE060EF70E084E190E00E947A
S1130DA0CE001092410108950E9459000E945E00F5
S1130DB080936200811103C082E1809362000E94EB
S1130DC075000E94BC010E9425010E94B6010E9488
S1130DD0A9010E941A060E9463068AE296E79BBD57
S1130DE08ABD80914701813009F4ACC020F0823083
S1130DF009F478C116C280914A01813009F081C09A
S1130E008091460191E0980F90934601833011F44C
S1130E101092460180914601823059F028F48823CB
S1130E2041F0813079F01FC0833061F0843099F053
S1130E301AC086E990E00E946D0187EA90E00E9462
S1130E408B0111C088EB90E00E946D0189EC90E069
S1130E500E948B0108C08AED90E00E946D018AEE29
S1130E6090E00E948B01E0914501EF5FE093450122
S1130E70E7708E2F90E0FC01E65DFF4F0C943C0977
S1130E804EEF68EB71E08AE590E00E94CE0037C037
S1130E9040E064EF71E082E090E00E94CE002FC059
S1130EA040E068EB71E082EC91E00E94CE0027C044
S1130EB041E063E972E08EE591E00E94CE001FC03C
S1130EC040E06AE272E084E190E00E94CE0017C044
S1130ED040E064EF71E082E090E00E94CE000FC039
S1130EE043E060E971E08CE390E00E94CE0007C02B
S1130EF040E064EF71E082E090E00E94CE00109246
S1130F004A0180916101823071F481E0809347014C
S1130F1080914A018823E1F310924A010E9421063C
S1130F2083E08093610180916001823019F483E051
S1130F308093600180916001853009F072C1109244
S1130F4060016FC180914A01813009F06DC00E9437
S1130F5046030E94F1040E9478068091450191E0C5
S1130F60980F909345018F3F61F40E945E00909129
S1130F706200892780936200811103C085EA80930F
S1130F8062008091720090917300813E2EE292077C
S1130F9038F080549109909373008093720031C0AB
S1130FA0813127E2920730F0809790937300809309
S1130FB0720027C081342FE1920730F00897909394
S1130FC07300809372001DC0813727E1920730F0CF
S1130FD00497909373008093720013C0813A2FE0BA
S1130FE0920730F00297909373008093720009C0C7
S1130FF0813D27E0920728F0019790937300809336
S1131000720080917200909173009BBD8ABD8091A3
S11310107100811107C08AE296E79BBD8ABD82E018
S11310208093470110924A0180916101823001F559
S113103080914D01882319F0813069F016C081E058
S113104080934D0160E080E20E944B0160E080E00B
S11310500E945C010AC010924D0160E080E00E9491
S11310604B0160E080E20E945C0183E080936101B7
S113107080916001823071F581E0809341010E948A
S1131080780680914D01882319F0813079F01BC0D6
S113109080915A0190915B01826090935B018093EF
S11310A05A0161E08DE30E944B010DC0809158010B
S11310B0909159018260909359018093580161E0A5
S11310C08DE30E945C0181E080934C0183E0809376
S11310D06001A7C0853009F0A4C010924C011092A1
S11310E060019FC080914A01813009F084C08091E1
S11310F045018F5F809345018091460191E0980FEF
S113110090934601833011F4109246018091460178
S1131110823059F028F4882341F0813079F01FC0DF
S1131120833061F0843099F01AC08AEF90E00E9415
S11311306D018BE091E00E948B0111C08CE191E084
S11311400E946D018DE291E00E948B0108C08AED3E
S113115090E00E946D018AEE90E00E948B018091E4
S11311604501E82FE7708E2F90E0FC01EE5CFF4F05
S11311700C943C0942E068EB71E08AE590E00E943F
S1131180CE0037C040E064EF71E082E090E00E945E
S1131190CE002FC040E068E871E082E593E00E9451
S11311A0CE0027C040E06BE472E082E593E00E9449
S11311B0CE001FC040E06BE072E084E190E00E944A
S11311C0CE0017C040E064EF71E082E090E00E943E
S11311D0CE000FC040E064EF71E082E090E00E9436
S11311E0CE0007C040E064EF71E082E090E00E942E
S11311F0CE0010924A0180916101823029F410924C
S1131200470183E08093610180916001823019F489
S113121083E08093600180916001853011F4109225
S1131220600180914B01813009F0DBCD0E94E10126
S11312300E947B0510924B01D4CD052E97FB1EF422
S113124000940E94340957FD07D00E94510907FCFD
S113125003D04EF40C943409509540953095219563
S11312603F4F4F4F5F4F08959095809570956195CE
S11312707F4F8F4F9F4F0895EE0FFF1F0590F491FE
S1131280E02D0994A29FB001B39FC001A39F700DEC
S1131290811D1124911DB29F700D811D1124911D7A
S11312A00895A1E21A2EAA1BBB1BFD010DC0AA1FA3
S11312B0BB1FEE1FFF1FA217B307E407F50720F0BB
S11312C0A21BB30BE40BF50B661F771F881F991F36
S11312D01A9469F760957095809590959B01AC017F
S10D12E0BD01CF010895F894FFCF7B
S11312EA0301AAC0F9A4B0999282D880900102039A
S11312FA040970170A55020F1E17171E0F02000061
S113130A071F1F070000181C0E1D1D0E1C180203C0
S113131A1F0A0A1F030220205E6F206F5E202066C8
S113132A656C696E65200020494E56414445525306
S113133A20203E773C20200020205E7520755E2008
S113134A2066656C696E65200020494E5641444505
S113135A525320206F776F202000205072657373D8
S113136A627574743E2077203C00205E6F206F5EA5
S113137A20746F2073746172740020205E6F206F72
S113138A5E20202067616D652020002020204F56B2
S113139A4552202020203E773C20200020205E75E4
S11313AA20755E20202047414D4520200020202022
S11113BA6F766572202020206F776F20200050
S9030000FC
