S01A000046656C696E652D496E7661646572732D62352E737265638A
S11300000C942A000C9447000C9447000C9447006D
S11300100C9478000C9447000C9447000C948B01CA
S11300200C9447000C9447000C9447000C949A01DC
S11300300C9447000C9447000C9447000C94470020
S11300400C9447000C9447000C9447000C94470010
S11300500C94470011241FBECFE5D8E0DEBFCDBF0E
S113006011E0A0E6B0E0E6EFF0E102C005900D92E9
S1130070AE31B107D9F721E0AEE1B1E001C01D9284
S1130080A234B207E1F70E947F060C9479080C941D
S1130090000080E487B986E886B9089586B1806453
S11300A086B93699FECF84B108958091620080FFAD
S11300B006C086959CE889278093620003C08695D4
S11300C08093620080916200089581B3806181BB56
S11300D08CE085BD8BE283BD089589B7806889BFB4
S11300E0089589B78F7789BF82B38F7E82BB0895C5
S11300F01F920F920FB60F9211242F933F934F9399
S11301005F936F937F938F939F93AF93BF93EF937B
S1130110FF9392B380E1892782BB80912301909160
S1130120240180FF0BC0809123019091240181FF61
S113013005C09091220183B5891B83BD8091230161
S1130140909124019C012150310930932401209382
S11301502301892B11F40E947100FF91EF91BF914B
S1130160AF919F918F917F916F915F914F913F914B
S11301702F910F900FBE0F901F901895CF93DF9380
S1130180C82FD42F9B013695322F222737952795D8
S113019040E050E060E070EC88EA90E00E942908BA
S11301A023BDD09322018C2F90E09093240180935F
S11301B023010E946D00DF91CF91089585BB82B326
S11301C0806482BB8AE48A95F1F782B38F7B82BB19
S11301D088EB8A95F1F7000008958FEF84BB87B30D
S11301E0846087BB81B3806C81BB8FEF95E30197FB
S11301F0F1F700C0000088B38B7F88BB82B38F7790
S113020082BB88E30E94DE0086E00E94DE008CE070
S11302100E94DE0081E00E94DE0089E995E10197F9
S1130220F1F700C00895CF93C82F98B39B7F98BB74
S113023080E8860F0E94DE0088B3846088BB8C2F20
S11302400E94DE00CF910895CF93C82F98B39B7F6F
S113025098BB80EC860F0E94DE0088B3846088BB64
S11302608C2F0E94DE00CF9108950F931F93CF939C
S11302708C0188B38B7F88BB80E80E94DE0088B342
S1130280846088BBC0E009C0F801EC0FF11D8081D7
S1130290882329F00E94DE00CF5FC031A8F3CF91FC
S11302A01F910F9108950F931F93CF938C0188B3DF
S11302B08B7F88BB80EC0E94DE0088B3846088BB9F
S11302C0C0E009C0F801EC0FF11D8081882329F0FA
S11302D00E94DE00CF5FC031A8F3CF911F910F9130
S11302E008958CE08EBD89B7806189BF80917200CA
S11302F0909173009BBD8ABD7894089583E083BF79
S113030089B7816089BF089587B38C7F87BB88B321
S1130310836088BB08951F920F920FB60F92112429
S11303208F9381E080932A018F910F900FBE0F90DD
S11303301F9018951F920F920FB60F9211248F934E
S113034081E080932B018F910F900FBE0F901F902F
S11303501895B0990FC080914101882319F081301C
S113036029F015C081E08093410111C082E080939F
S113037041010DC080914101833019F0843029F08E
S113038006C084E08093410102C010924101B199FA
S11303900FC080914001882319F0813029F008951D
S11303A081E080934001089582E0809340010895A4
S11303B080914001833019F0843029F0089584E05D
S11303C080934001089585E080934001089520E0E2
S11303D006C0AC0141505109842395232F5F009737
S11303E0C1F7822F0895EF92FF920F931F93CF933B
S11303F0DF9320913E0130913F01E0903A01F0906B
S11304003B01C9018E219F219093370180933601CE
S1130410AC01409550952423352330933F0120931C
S11304203E01E422F522F0923B01E0923A0100976A
S113043039F020912101233018F422E02093210186
S11304400E94E701C0912801D0912901C80FD11D54
S1130450D0932901C093280120913C0130913D01A2
S11304600091380110913901C9018023912390939F
S1130470370180933601AC014095509524233523F0
S113048030933D0120933C0104231523109339013B
S113049000933801009739F020912101233018F49A
S11304A022E0209321010E94E701C80FD11DD093BF
S11304B02901C09328012091340130913501C701ED
S11304C0822393239093370180933601AC014095A6
S11304D05095242335233093350120933401E422AD
S11304E0F522F0923B01E0923A01009739F0209115
S11304F02101243019F023E0209321010E94E70117
S1130500C80FD11DD0932901C09328014091320115
S113051050913301C701842395239093370180932D
S113052036019C0120953095422353235093330187
S113053040933201E222F322F0923B01E0923A012D
S1130540009739F020912101243019F023E0209301
S113055021010E94E701C80FD11DD0932901C09346
S113056028012091300130913101C8018223932365
S11305709093370180933601AC0140955095242324
S11305803523309331012093300104231523109334
S1130590390100933801009739F02091210124306A
S11305A019F023E0209321010E94E701C80FD11D17
S11305B0D0932901C093280140912E0150912F011D
S11305C0C8018423952390933701809336019C01BD
S11305D0209530954223532350932F0140932E01AD
S11305E0022313231093390100933801009739F043
S11305F020912101243019F023E0209321010E944D
S1130600E701C80FD11DD0932901C0932801DF91C0
S1130610CF911F910F91FF90EF9008958091200149
S11306208111FAC080913401909135019695879596
S1130630909335018093340180913201909133017C
S11306409695879590933301809332018091300180
S11306509091310196958795909331018093300163
S113066080912E0190912F019695879590932F015B
S113067080932E010E94550020913C0130913D0150
S113068040913201509133014223532391E0893147
S113069008F090E081E0452B09F080E08923409147
S11306A03E0150913F0160912E0170912F0164230E
S11306B0752391E0672B09F090E0882359F0992382
S11306C049F030933F0120933E0150933D01409304
S11306D03C010CC05695479550933F0140933E0111
S11306E03695279530933D0120933C0180911F015D
S11306F0811132C00E945500909174008917B0F4A2
S113070081E080931F0180913401909135019068BC
S1130710909335018093340180913201909133019B
S1130720906890933301809332012AC00E9455004F
S113073090917500891718F480E090E802C080E079
S113074090E020913E0130913F01822B932B9093B6
S11307503F0180933E0114C0809134019091350192
S11307609068909335018093340180913201909187
S113077033019068909333018093320110921F01EA
S113078080911E01811132C00E9455009091740025
S11307908917B0F481E080931E018091300190911B
S11307A031019068909331018093300180912E0142
S11307B090912F01906890932F0180932E012AC06D
S11307C00E94550090917500891718F480E090E814
S11307D002C080E090E020913C0130913D01822BE9
S11307E0932B90933D0180933C0114C08091300180
S11307F09091310190689093310180933001809100
S11308002E0190912F01906890932F0180932E01D7
S113081010921E010E94F3018091200191E0980F33
S113082090932001823011F41092200120913A011A
S113083030913B01332344F48091710081508093C3
S1130840710084E0809321018091380190913901F5
S1130850992344F44091710041504093710044E065
S11308604093210140913E0150913F0140FF0DC052
S1130870609171006150609371004E7F50933F010D
S113088040933E0144E04093210140913C0150914A
S11308903D0140FF0DC06091710061506093710093
S11308A04E7F50933D0140933C0144E0409321012D
S11308B0409132015091330140FF0DC060917100AD
S11308C06150609371004E7F509333014093320125
S11308D044E04093210140912E0150912F0140FFAB
S11308E00DC0609171006150609371004E7F509310
S11308F02F0140932E0144E040932101220F331F26
S113090030933B0120933A01880F991F909339014A
S11309108093380140912C01413029F540916100C8
S113092051E0540F50936100413019F4109261006A
S11309301DC040912101423018F441E0409321014F
S113094040912D01442319F0413039F00FC0226049
S113095030933B0120933A0109C08260909339019E
S11309608093380103C081E0809361000E94F30109
S11309700895EF92FF920F931F93CF93DF9311E0AB
S1130980F12C00E076C0C1E0D0E0012E02C0CC0F13
S1130990DD1F0A94E2F780913201909133018C2398
S11309A09D23892B89F0EE24E394E00E011106C007
S11309B0612F8BE70E9413010E2D24C0612F85E463
S11309C00E94130100E01EC080913E0190913F01FE
S11309D08C239D23892B29F0612F8AE20E94130125
S11309E011C080913A0190913B018C239D23892B66
S11309F029F0612F8DE30E94130104C0612F80E26E
S1130A000E94130180912E0190912F018C239D232C
S1130A10892B81F0C1E0CF0DF11006C0612F8BE767
S1130A200E942401FC2E24C0612F85E40E9424012D
S1130A30F12C1EC080913C0190913D018C239D239B
S1130A40892B29F0612F8AE20E94240111C0809130
S1130A50380190913901C823D923CD2B29F0612F76
S1130A608DE30E94240104C0612F80E20E942401CE
S1130A701F5F103108F487CFDF91CF911F910F9141
S1130A80FF90EF900895CF93DF9328B381E090E037
S1130A900090600002C0880F991F0A94E2F7822B2D
S1130AA088BB8091600091E0980F9093600086303D
S1130AB019F483E080936000EDE6F0E0809171002A
S1130AC0808340912801509129019A01ADECBCEC3E
S1130AD00E9448089695879596958795969587954B
S1130AE09C01220F331F880F991F880F991F880FAD
S1130AF0991F820F931F9A01281B390B23839A0194
S1130B000E944808EC01D695C795D695C795D69509
S1130B10C7959E010E944808969587959695879556
S1130B20969587959C01220F331F880F991F880F74
S1130B30991F880F991F820F931F9E01281B390B41
S1130B4022839A013695279536952795ABE7B4E12C
S1130B500E944808AC01569547959A01ADECBCEC4F
S1130B600E944808969587959695879596958795BA
S1130B709C01220F331F880F991F880F991F880F1C
S1130B80991F820F931F9A01281B390B2183E0912F
S1130B906000F0E0E659FF4FE081F0E0ED59FF4FCF
S1130BA080818BBB28B381E090E00090600002C09C
S1130BB0880F991F0A94E2F78095822388BBDF91FE
S1130BC0CF91089587B3886787BB8AB38FEF8ABBB9
S1130BD0089580E797E190937300809372009BBD22
S1130BE08ABD10923B0110923A0110923901109281
S1130BF0380110923701109236011092350110928B
S1130C00340110923301109232011092310110928A
S1130C10300110922F0110922E0180E090E8909301
S1130C203F0180933E0190933D0180933C0189E014
S1130C3080937100109229011092280110922D01C5
S1130C4010922C0160E08EE30E94130160E080E2C8
S1130C500E942401089580912101823091F028F4AA
S1130C60882321F1813031F047C0833089F084300A
S1130C70B1F042C04CEE60E47FE184E60E94BE0025
S1130C803BC041E06CE573E084E10E94BE0034C0E7
S1130C904CEF60E872E084E60E94BE002DC040E0A4
S1130CA064E571E084E60E94BE0026C080912501BF
S1130CB08370813069F028F0823089F08330B1F09C
S1130CC01BC040EE60E273E084E10E94BE0014C0E9
S1130CD040EE60E273E084E10E94BE000DC04BEF81
S1130CE06CEA73E081E00E94BE0006C04AE060EF57
S1130CF070E084E10E94BE001092210108950E94D8
S1130D0049000E944E0080936200811103C082E179
S1130D10809362000E9465000E9484010E94ED009D
S1130D200E947E010E9471010E94E20580E197E623
S1130D309BBD8ABD80912701813009F45FC020F0FA
S1130D40823009F42BC179C180912A018130A9F53F
S1130D508091260191E0980F90932601833011F43D
S1130D601092260180912601823059F028F48823BC
S1130D7041F0813079F01FC0833061F0843099F004
S1130D801AC086E790E00E94350187E890E00E944F
S1130D90530111C088E990E00E94350189EA90E08E
S1130DA00E94530108C08AEB90E00E9435018AEC4E
S1130DB090E00E94530110922A01809141018230F7
S1130DC071F481E08093270180912A018823E1F363
S1130DD010922A010E94E90583E0809341018091E9
S1130DE04001823019F483E08093400180914001F6
S1130DF0853009F022C1109240011FC180912A015F
S1130E00813009F06DC00E940E030E94B9040E9453
S1130E102B068091250191E0980F909325018F3F37
S1130E2061F40E944E0090916200892780936200D1
S1130E30811103C085EA80936200809172009091D1
S1130E407300813E2EE2920738F08054910990930A
S1130E5073008093720031C0813127E2920730F031
S1130E608097909373008093720027C081342FE1A0
S1130E70920730F0089790937300809372001DC01E
S1130E80813727E1920730F00497909373008093A1
S1130E90720013C0813A2FE0920730F002979093CA
S1130EA073008093720009C0813D27E0920728F007
S1130EB001979093730080937200809172009091D7
S1130EC073009BBD8ABD80917100811107C080E1D0
S1130ED097E69BBD8ABD82E08093270110922A0188
S1130EE080914101823001F580912D01882319F010
S1130EF0813069F016C081E080932D0160E080E2CA
S1130F000E94130160E08EE30E9424010AC0109243
S1130F102D0160E08EE30E94130160E080E20E94F4
S1130F20240183E08093410180914001823071F576
S1130F3081E0809321010E942B0680912D0188235A
S1130F4019F0813079F01BC080913A0190913B01F6
S1130F50826090933B0180933A0161E08DE30E94AB
S1130F6013010DC0809138019091390182609093F2
S1130F7039018093380161E08DE30E94240181E00E
S1130F8080932C0183E08093400157C0853009F0A1
S1130F9054C010922C01109240014FC080912A013C
S1130FA08130A9F58091260191E0980F9093260154
S1130FB0833011F41092260180912601823059F079
S1130FC028F4882341F0813079F01FC0833061F028
S1130FD0843099F01AC08AED90E00E9435018BEEBE
S1130FE090E00E94530111C08CEF90E00E94350103
S1130FF08DE091E00E94530108C08AEB90E00E94CA
S113100035018AEC90E00E94530110922A018091EC
S11310104101823029F41092270183E08093410139
S113102080914001823019F483E0809340018091E3
S11310304001853011F41092400180912B018130E0
S113104009F078CE0E94A9010E94430510922B0159
S113105071CE052E97FB1EF400940E94400857FDA4
S113106007D00E94570807FC03D04EF40C944008A4
S113107050954095309521953F4F4F4F5F4F0895C0
S113108090958095709561957F4F8F4F9F4F0895F0
S1131090A29FB001B39FC001A39F700D811D1124B5
S11310A0911DB29F700D811D1124911D0895A1E21F
S11310B01A2EAA1BBB1BFD010DC0AA1FBB1FEE1FCE
S11310C0FF1FA217B307E407F50720F0A21BB30B19
S11310D0E40BF50B661F771F881F991F1A9469F795
S11310E060957095809590959B01AC01BD01CF01F1
S10910F00895F894FFCFFF
S11310F60301AAC0F9A4B0999282D8809001020390
S1131106040970170A5520205E6F206F5E20206642
S1131116656C696E65200020494E5641444552531C
S113112620203E773C20200020205E7520755E201E
S11311362066656C696E65200020494E564144451B
S1131146525320206F776F202000205072657373EE
S1131156627574743E2077203C00205E6F206F5EBB
S113116620746F2073746172740020205E6F206F88
S11311765E20202067616D652020002020204F56C8
S11311864552202020203E773C20200020205E75FA
S113119620755E20202047414D4520200020202038
S11111A66F766572202020206F776F20200066
S9030000FC
