:100000000C943A000C9457000C9457000C94570031
:100010000C9488000C9457000C9457000C949B018E
:100020000C9457000C9457000C9457000C94AA01A0
:100030000C9457000C9457000C9457000C945700E4
:100040000C9457000C9457000C9457000C945700D4
:100050000C94570001070907110719072107290701
:10006000310739077B0883088B0893089B08A3088E
:10007000AB08B30811241FBECFE5D8E0DEBFCDBF6B
:1000800011E0A0E6B0E0ECE6F2E102C005900D92CE
:10009000AE31B107D9F721E0AEE1B1E001C01D9268
:1000A000A234B207E1F70E9497060C9434090C942D
:1000B000000080E487B986E886B9089586B1806437
:1000C00086B93699FECF84B108958091620080FF91
:1000D00006C086959CE889278093620003C08695B8
:1000E0008093620080916200089581B3806181BB3A
:1000F0008CE085BD8BE283BD089589B7806889BF98
:10010000089589B78F7789BF82B38F7E82BB0895A8
:100110001F920F920FB60F9211242F933F934F937C
:100120005F936F937F938F939F93AF93BF93EF935F
:10013000FF9392B380E1892782BB80912301909144
:10014000240180FF0BC0809123019091240181FF45
:1001500005C09091220183B5891B83BD8091230145
:10016000909124019C012150310930932401209366
:100170002301892B11F40E948100FF91EF91BF911F
:10018000AF919F918F917F916F915F914F913F912F
:100190002F910F900FBE0F901F9018951F93CF9324
:1001A000DF93EC01142F9B013695322F22273795D0
:1001B000279540E050E060E070EC88EA90E00E9413
:1001C000DE0823BD10932201D0932401C0932301A4
:1001D0000E947D00DF91CF911F91089585BB82B36E
:1001E000806482BB8AE48A95F1F782B38F7B82BBFD
:1001F00088EB8A95F1F7000008958FEF84BB87B3F1
:10020000846087BB81B3806C81BB8FEF95E30197DE
:10021000F1F700C0000088B38B7F88BB82B38F7773
:1002200082BB88E30E94EE0086E00E94EE008CE034
:100230000E94EE0081E00E94EE0089E995E10197BD
:10024000F1F700C00895CF93C82F98B39B7F98BB58
:1002500080E8860F0E94EE0088B3846088BB8C2FF4
:100260000E94EE00CF910895CF93C82F98B39B7F43
:1002700098BB80EC860F0E94EE0088B3846088BB38
:100280008C2F0E94EE00CF9108950F931F93CF9370
:100290008C0188B38B7F88BB80E80E94EE0088B316
:1002A000846088BBC0E009C0F801EC0FF11D8081BB
:1002B000882329F00E94EE00CF5FC031A8F3CF91D0
:1002C0001F910F9108950F931F93CF938C0188B3C3
:1002D0008B7F88BB80EC0E94EE0088B3846088BB73
:1002E000C0E009C0F801EC0FF11D8081882329F0DE
:1002F0000E94EE00CF5FC031A8F3CF911F910F9104
:1003000008958CE08EBD89B7806189BF80917200AD
:10031000909173009BBD8ABD7894089583E083BF5C
:1003200089B7816089BF089587B38C7F87BB88B305
:10033000836088BB08951F920F920FB60F9211240D
:100340008F9381E080932A018F910F900FBE0F90C1
:100350001F9018951F920F920FB60F9211248F9332
:1003600081E080932B018F910F900FBE0F901F9013
:100370001895B0990FC080914101882319F0813000
:1003800029F015C081E08093410111C082E0809383
:1003900041010DC080914101833019F0843029F072
:1003A00006C084E08093410102C010924101B199DE
:1003B0000FC080914001882319F0813029F0089501
:1003C00081E080934001089582E080934001089588
:1003D00080914001833019F0843029F0089584E041
:1003E00080934001089585E080934001089520E0C6
:1003F00006C0AC0141505109842395232F5F00971B
:10040000C1F7822F0895EF92FF920F931F93CF931E
:10041000DF9320913E0130913F01E0903A01F0904E
:100420003B01C9018E219F219093370180933601B2
:10043000AC01409550952423352330933F01209300
:100440003E01E422F522F0923B01E0923A0100974E
:1004500039F020912101233018F422E0209321016A
:100460000E94F701C0912801D0912901C80FD11D28
:10047000D0932901C093280120913C0130913D0186
:100480000091380110913901C90180239123909383
:10049000370180933601AC014095509524233523D4
:1004A00030933D0120933C0104231523109339011F
:1004B00000933801009739F020912101233018F47E
:1004C00022E0209321010E94F701C80FD11DD09393
:1004D0002901C09328012091340130913501C701D1
:1004E000822393239093370180933601AC0140958A
:1004F0005095242335233093350120933401E42291
:10050000F522F0923B01E0923A01009739F02091F8
:100510002101243019F023E0209321010E94F701EA
:10052000C80FD11DD0932901C093280140913201F9
:1005300050913301C7018423952390933701809311
:1005400036019C012095309542235323509333016B
:1005500040933201E222F322F0923B01E0923A0111
:10056000009739F020912101243019F023E02093E5
:1005700021010E94F701C80FD11DD0932901C0931A
:1005800028012091300130913101C8018223932349
:100590009093370180933601AC0140955095242308
:1005A0003523309331012093300104231523109318
:1005B000390100933801009739F02091210124304E
:1005C00019F023E0209321010E94F701C80FD11DEB
:1005D000D0932901C093280140912E0150912F0101
:1005E000C8018423952390933701809336019C01A1
:1005F000209530954223532350932F0140932E0191
:10060000022313231093390100933801009739F026
:1006100020912101243019F023E0209321010E9430
:10062000F701C80FD11DD0932901C0932801DF9194
:10063000CF911F910F91FF90EF900895809120012D
:100640008111FAC08091340190913501969587957A
:100650009093350180933401809132019091330160
:100660009695879590933301809332018091300164
:100670009091310196958795909331018093300147
:1006800080912E0190912F019695879590932F013F
:1006900080932E010E94650020913C0130913D0124
:1006A00040913201509133014223532391E089312B
:1006B00008F090E081E0452B09F080E0892340912B
:1006C0003E0150913F0160912E0170912F016423F2
:1006D000752391E0672B09F090E0882359F0992366
:1006E00049F030933F0120933E0150933D014093E8
:1006F0003C010CC05695479550933F0140933E01F5
:100700003695279530933D0120933C0180911F0140
:10071000811132C00E946500909174008917B0F475
:1007200081E080931F0180913401909135019068A0
:10073000909335018093340180913201909133017F
:10074000906890933301809332012AC00E94650023
:1007500090917500891718F480E090E802C080E05D
:1007600090E020913E0130913F01822B932B90939A
:100770003F0180933E0114C0809134019091350176
:10078000906890933501809334018091320190916B
:1007900033019068909333018093320110921F01CE
:1007A00080911E01811132C00E94650090917400F9
:1007B0008917B0F481E080931E01809130019091FF
:1007C00031019068909331018093300180912E0126
:1007D00090912F01906890932F0180932E012AC051
:1007E0000E94650090917500891718F480E090E8E8
:1007F00002C080E090E020913C0130913D01822BCD
:10080000932B90933D0180933C0114C08091300163
:1008100090913101906890933101809330018091E3
:100820002E0190912F01906890932F0180932E01BB
:1008300010921E010E9403028091200191E0980F06
:1008400090932001823011F41092200120913A01FE
:1008500030913B01332344F48091710081508093A7
:10086000710084E0809321018091380190913901D9
:10087000992344F44091710041504093710044E049
:100880004093210140913E0150913F0140FF0DC036
:10089000609171006150609371004E7F50933F01F1
:1008A00040933E0144E04093210140913C0150912E
:1008B0003D0140FF0DC06091710061506093710077
:1008C0004E7F50933D0140933C0144E04093210111
:1008D000409132015091330140FF0DC06091710091
:1008E0006150609371004E7F509333014093320109
:1008F00044E04093210140912E0150912F0140FF8F
:100900000DC0609171006150609371004E7F5093F3
:100910002F0140932E0144E040932101220F331F09
:1009200030933B0120933A01880F991F909339012E
:100930008093380140912C01413029F540916100AC
:1009400051E0540F50936100413019F4109261004E
:100950001DC040912101423018F441E04093210133
:1009600040912D01442319F0413039F00FC022602D
:1009700030933B0120933A0109C082609093390182
:100980008093380103C081E0809361000E940302DC
:100990000895EF92FF920F931F93CF93DF9311E08F
:1009A000F12C00E076C0C1E0D0E0012E02C0CC0FF7
:1009B000DD1F0A94E2F780913201909133018C237C
:1009C0009D23892B89F0EE24E394E00E011106C0EB
:1009D000612F8BE70E9423010E2D24C0612F85E437
:1009E0000E94230100E01EC080913E0190913F01D2
:1009F0008C239D23892B29F0612F8AE20E942301F9
:100A000011C080913A0190913B018C239D23892B49
:100A100029F0612F8DE30E94230104C0612F80E241
:100A20000E94230180912E0190912F018C239D2300
:100A3000892B81F0C1E0CF0DF11006C0612F8BE74B
:100A40000E943401FC2E24C0612F85E40E943401F1
:100A5000F12C1EC080913C0190913D018C239D237F
:100A6000892B29F0612F8AE20E94340111C0809104
:100A7000380190913901C823D923CD2B29F0612F5A
:100A80008DE30E94340104C0612F80E20E94340192
:100A90001F5F103108F487CFDF91CF911F910F9125
:100AA000FF90EF900895CF93DF9328B381E090E01B
:100AB0000090600002C0880F991F0A94E2F7822B11
:100AC00088BB8091600091E0980F90936000863021
:100AD00019F483E080936000EDE6F0E0809171000E
:100AE000808340912801509129019A01ADECBCEC22
:100AF0000E94030996958795969587959695879573
:100B00009C01220F331F880F991F880F991F880F90
:100B1000991F820F931F9A01281B390B23839A0177
:100B20000E940309EC01D695C795D695C795D69531
:100B3000C7959E010E94030996958795969587957E
:100B4000969587959C01220F331F880F991F880F58
:100B5000991F880F991F820F931F9E01281B390B25
:100B600022839A013695279536952795ABE7B4E110
:100B70000E940309AC01569547959A01ADECBCEC77
:100B80000E940309969587959695879596958795E2
:100B90009C01220F331F880F991F880F991F880F00
:100BA000991F820F931F9A01281B390B2183E09113
:100BB0006000F0E0E659FF4FE081F0E0ED59FF4FB3
:100BC00080818BBB28B381E090E00090600002C080
:100BD000880F991F0A94E2F78095822388BBDF91E2
:100BE000CF91089587B3886787BB8AB38FEF8ABB9D
:100BF000089580E797E190937300809372009BBD06
:100C00008ABD10923B0110923A0110923901109264
:100C1000380110923701109236011092350110926E
:100C2000340110923301109232011092310110926E
:100C3000300110922F0110922E0180E090E89093E5
:100C40003F0180933E0190933D0180933C0189E0F8
:100C500080937100109229011092280110922D01A9
:100C600010922C0160E08EE30E94230160E080E29C
:100C70000E943401089580912101823099F028F476
:100C8000882341F1813031F04FC0833099F08430B6
:100C9000C9F04AC04CEE60E47FE184E690E00E9437
:100CA000CE0042C041E06CE573E084E190E00E9438
:100CB000CE003AC04CEF60E872E084E690E00E941B
:100CC000CE0032C040E064E571E084E690E00E942E
:100CD000CE002AC0809125018370813071F028F008
:100CE000823099F08330C9F01FC040EE60E273E0BB
:100CF00084E190E00E94CE0017C040EE60E273E015
:100D000084E190E00E94CE000FC04BEF6CEA73E0EC
:100D100081E090E00E94CE0007C04AE060EF70E002
:100D200084E190E00E94CE001092210108950E947B
:100D300059000E945E0080936200811103C082E12D
:100D4000809362000E9475000E9494010E94FD0041
:100D50000E948E010E9481010E94F2058AE296E7BC
:100D60009BBD8ABD80912701813009F4ACC020F081
:100D7000823009F478C116C280912A01813009F0CD
:100D800081C08091260191E0980F909326018330D5
:100D900011F41092260180912601823059F028F436
:100DA000882341F0813079F01FC0833061F08430B6
:100DB00099F01AC086E790E00E94450187E890E02C
:100DC0000E94630111C088E990E00E94450189EA10
:100DD00090E00E94630108C08AEB90E00E94450108
:100DE0008AEC90E00E946301E0912501EF5FE093BF
:100DF0002501E7708E2F90E0FC01E65DFF4F0C941B
:100E0000FD084EEF68EB71E08AE590E00E94CE00AD
:100E100037C040E064EF71E082E090E00E94CE00D5
:100E20002FC040E068EB71E082EC91E00E94CE00C0
:100E300027C041E063E972E08EE591E00E94CE00B8
:100E40001FC040E06AE272E084E190E00E94CE00C0
:100E500017C040E064EF71E082E090E00E94CE00B5
:100E60000FC043E060E971E08CE390E00E94CE00A7
:100E700007C040E064EF71E082E090E00E94CE00A5
:100E800010922A0180914101823071F481E08093B7
:100E9000270180912A018823E1F310922A010E9400
:100EA000F90583E08093410180914001823019F47B
:100EB00083E08093400180914001853009F072C148
:100EC000109240016FC180912A01813009F06DC0FC
:100ED0000E941E030E94C9040E943B0680912501C6
:100EE00091E0980F909325018F3F61F40E945E007E
:100EF00090916200892780936200811103C085EA86
:100F0000809362008091720090917300813E2EE286
:100F1000920738F080549109909373008093720087
:100F200031C0813127E2920730F0809790937300AF
:100F30008093720027C081342FE1920730F0089728
:100F400090937300809372001DC0813727E1920750
:100F500030F00497909373008093720013C0813A2D
:100F60002FE0920730F00297909373008093720005
:100F700009C0813D27E0920728F001979093730004
:100F80008093720080917200909173009BBD8ABD26
:100F900080917100811107C08AE296E79BBD8ABDEE
:100FA00082E08093270110922A01809141018230D2
:100FB00001F580912D01882319F0813069F016C068
:100FC00081E080932D0160E080E20E94230160E0D7
:100FD0008EE30E9434010AC010922D0160E08EE37E
:100FE0000E94230160E080E20E94340183E080934C
:100FF000410180914001823071F581E080932101AF
:101000000E943B0680912D01882319F0813079F0F0
:101010001BC080913A0190913B01826090933B010B
:1010200080933A0161E08DE30E9423010DC080911D
:101030003801909139018260909339018093380191
:1010400061E08DE30E94340181E080932C0183E014
:1010500080934001A7C0853009F0A4C010922C01F4
:10106000109240019FC080912A01813009F084C014
:10107000809125018F5F809325018091260191E069
:10108000980F90932601833011F4109226018091DD
:101090002601823059F028F4882341F0813079F01C
:1010A0001FC0833061F0843099F01AC08AED90E05F
:1010B0000E9445018BEE90E00E94630111C08CEF0D
:1010C00090E00E9445018DE091E00E94630108C01C
:1010D0008AEB90E00E9445018AEC90E00E94630157
:1010E00080912501E82FE7708E2F90E0FC01EE5CE7
:1010F000FF4F0C94FD0842E068EB71E08AE590E058
:101100000E94CE0037C040E064EF71E082E090E0E2
:101110000E94CE002FC040E068E871E082E593E0D5
:101120000E94CE0027C040E06BE472E082E593E0CD
:101130000E94CE001FC040E06BE072E084E190E0CE
:101140000E94CE0017C040E064EF71E082E090E0C2
:101150000E94CE000FC040E064EF71E082E090E0BA
:101160000E94CE0007C040E064EF71E082E090E0B2
:101170000E94CE0010922A0180914101823029F410
:101180001092270183E080934101809140018230D9
:1011900019F483E08093400180914001853011F47F
:1011A0001092400180912B01813009F0DBCD0E942B
:1011B000B9010E94530510922B01D4CD052E97FB47
:1011C0001EF400940E94F50857FD07D00E941209F2
:1011D00007FC03D04EF40C94F508509540953095DB
:1011E00021953F4F4F4F5F4F089590958095709593
:1011F00061957F4F8F4F9F4F0895EE0FFF1F059012
:10120000F491E02D0994A29FB001B39FC001A39F68
:10121000700D811D1124911DB29F700D811D11242F
:10122000911D0895A1E21A2EAA1BBB1BFD010DC042
:10123000AA1FBB1FEE1FFF1FA217B307E407F50786
:1012400020F0A21BB30BE40BF50B661F771F881F62
:10125000991F1A9469F760957095809590959B01F8
:0C126000AC01BD01CF010895F894FFCF50
:10126C000301AAC0F9A4B0999282D880900102031C
:10127C00040970170A5520205E6F206F5E202066CF
:10128C00656C696E65200020494E564144455253A9
:10129C0020203E773C20200020205E7520755E20AB
:1012AC002066656C696E65200020494E56414445A8
:1012BC00525320206F776F2020002050726573737B
:1012CC00627574743E2077203C00205E6F206F5E48
:1012DC0020746F2073746172740020205E6F206F15
:1012EC005E20202067616D652020002020204F5655
:1012FC004552202020203E773C20200020205E7587
:10130C0020755E20202047414D45202000202020C4
:0E131C006F766572202020206F776F202000F2
:00000001FF
